S01B0000616C7465726E617465737769746368676C6F772E73726563FE
S11300000C942A000C9434000C9434000C943400A6
S11300100C9434000C9434000C9434000C9434008C
S11300200C9434000C9434000C9434000C9434007C
S11300300C9434000C9434000C9434000C9434006C
S11300400C9434000C9434000C9434000C9434005C
S11300500C94340011241FBECFE5D4E0DEBFCDBF25
S11300600E94C4000C9452020C9400009C01207F56
S113007033272C5F25BBE9EFF0E03197F1F700C09F
S1130080000095B3945095BB8295807F8C5F85BBAF
S113009089EF90E00197F1F700C0000085B3845028
S11300A085BB08959C01207F33272B5F25BBE9EF97
S11300B0F0E03197F1F700C0000025B3245025BBD0
S11300C082959295907F9827807F98278B5F85BB38
S11300D089EF90E00197F1F700C0000085B38450E8
S11300E085BB08950F931F93CF93DF93EC01009783
S11300F081F580E390E00E94520084E090E00E9449
S1130100360022C09E01ADECBCEC0E9446028C017C
S11301101695079516950795169507959801220F3C
S1130120331FC801880F991F880F991F880F991FC3
S1130130820F931F9E01281B390BC901C0960E9490
S11301405200E8012097F1F686E090E00E94360024
S113015005C084E090E00E943600D4CFDF91CF91B7
S11301601F910F91089582E090E00E94360088E28A
S113017090E00E9436008CE090E00E94360086E019
S113018090E00E94360008951ABA8FEF87BB8BBBAC
S113019084BB0E94B300A12CB12CC12CD12CE12C26
S11301A0F12C00E010E0812C912C612C712C412C5D
S11301B0512C212C312CC0E0D0E089B38E3FA1F426
S11301C02114310489F489B38E3FE9F388B38F5F36
S11301D088BB80E890E00E94360081E090E00E94B5
S11301E0720022242394312C89B38D3FA1F441144D
S11301F0510489F489B38D3FE9F388B38E5F88BBDA
S113020081E890E00E94360082E090E00E94720053
S113021044244394512C89B38B3FA1F46114710499
S113022089F489B38B3FE9F388B38C5F88BB82E898
S113023090E00E94360083E090E00E947200662401
S11302406394712C89B3873FA1F48114910489F4D8
S113025089B3873FE9F388B3885F88BB83E890E07C
S11302600E94360084E090E00E9472008824839407
S1130270912C89B38F3E99F40115110581F489B34A
S11302808F3EE9F388B3805F88BB84E890E00E94E6
S1130290360085E090E00E94720001E010E089B32E
S11302A08F3DA1F4E114F10489F489B38F3DE9F39E
S11302B088B3805E88BB85E890E00E94360086E0C3
S11302C090E00E947200EE24E394F12C89B38F3BFA
S11302D0A1F4C114D10489F489B38F3BE9F388B341
S11302E0805C88BB86E890E00E94360087E090E05E
S11302F00E947200CC24C394D12C89B38F37A1F40B
S1130300A114B10489F489B38F37E9F388B3805811
S113031088BB87E890E00E94360088E090E00E9465
S11303207200AA24A394B12C89B38E3F99F481E07E
S11303302816310479F489B38E3FE9F388B38150E8
S113034088BB80E890E00E94360080E290E00E9442
S113035052001E0189B38D3F99F481E0481651047F
S113036079F489B38D3FE9F388B3825088BB81E87F
S113037090E00E94360080E290E00E9452002E013C
S113038089B38B3F99F481E06816710479F489B3D9
S11303908B3FE9F388B3845088BB82E890E00E94E5
S11303A0360080E290E00E9452003E0189B3873F0C
S11303B099F481E08816910479F489B3873FE9F3CD
S11303C088B3885088BB83E890E00E94360080E2BE
S11303D090E00E9452004E0189B38F3E91F40130A7
S11303E0110579F489B38F3EE9F388B3805188BB52
S11303F084E890E00E94360080E290E00E9452007F
S11304008E0189B38F3D99F481E0E816F10479F403
S113041089B38F3DE9F388B3805288BB85E890E0C7
S11304200E94360080E290E00E9452007E0189B36F
S11304308F3B99F481E0C816D10479F489B38F3BDA
S1130440E9F388B3805488BB86E890E00E943600C4
S113045080E290E00E9452006E0189B38F3709F068
S1130460ACCE81E0A816B10409F0A7CE89B38F37CA
S1130470E9F388B3805888BB87E890E00E9436008F
S113048080E290E00E9452005E0197CEA29FB001EC
S1130490B39FC001A39F01D0B29F700D811D112491
S10B04A0911D0895F894FFCFAB
S9030000FC
